:020000040800F2
:10000000F03C00209D0100089F29000851270008AE
:100010009D290008110E000839300008000000007A
:10002000000000000000000000000000892B000814
:10003000130E000800000000A12900088B2B000807
:10004000B7010008B7010008B7010008B7010008B0
:10005000B7010008B7010008B7010008B7010008A0
:10006000B7010008B7010008B7010008B701000890
:10007000B7010008B7010008B7010008B701000880
:10008000B7010008B7010008B7010008B701000870
:10009000B7010008B7010008B7010008B701000860
:1000A000B7010008B7010008B7010008B701000850
:1000B000B7010008312C0008B7010008B70100089B
:1000C000B7010008B7010008B7010008B701000830
:1000D000B701000821300008B7010008B701000887
:1000E000B7010008B7010008B7010008B701000810
:1000F000B7010008B7010008B7010008B701000800
:10010000B7010008B7010008B7010008B7010008EF
:10011000B7010008B7010008B7010008B7010008DF
:10012000B7010008B7010008B7010008B7010008CF
:10013000B70100080000000000000000B70100083F
:10014000B7010008B7010008B7010008B7010008AF
:10015000B7010008B7010008B70100082D300008FA
:10016000B7010008B7010008B7010008B70100088F
:10017000B7010008B701000800000000B70100083F
:10018000B7010008B7010008DFF80CD000F076FADC
:100190000048004731340008F03C00200648804702
:1001A00006480047FEE7FEE7FEE7FEE7FEE7FEE75C
:1001B000FEE7FEE7FEE7FEE7152C000889010008D0
:1001C0002DE9F05F0546002092469B46884606468C
:1001D000814640241BE0284641464746224600F01F
:1001E000CEF953465A46C01A914110D311461846CB
:1001F000224600F0B5F92D1A67EB01084F4622465A
:100200000120002100F0ACF917EB00094E41201E3F
:10021000A4F10104DFDC484631462A464346BDE8E6
:10022000F09F40EA01039B0703D009E008C9121FB1
:1002300008C0042AFAD203E011F8013B00F8013BA0
:10024000521EF9D27047D2B201E000F8012B491ECC
:10025000FBD270470022F6E710B513460A46044663
:100260001946FFF7F0FF204610BD2DE9FE4F8046EE
:1002700081EA0300C00F0C46009021F0004123F0FA
:100280000045B8EB0200A94105D240462146904600
:100290001C460B46024623F00040104347D0270D72
:1002A000C7F30A00C3F30A510290401A0190402894
:1002B0006BDAC3F3130040F4801B0098924620B120
:1002C0000023D2EB030A63EB0B0B01985946C0F1F4
:1002D0004002504600F044F906460D465046594645
:1002E000019A00F05CF910EB08006141002487EAF4
:1002F000115284EAE7731A4340D0009A62B3019A1C
:10030000012A4FEA075215DC001B61EB02014FF096
:10031000004202EA0752CDE90042001C41F580117B
:1003200032462B4600F05CF903B0BDE8F08F404642
:100330002146F9E7001B61EB0201001C41F5801327
:1003400000185B412018A2F5001747EB030140EAB3
:10035000D570B6196D4111E06D084FEA360645EAD1
:10036000C0754FEA0752001B61EB0201001C41F50A
:10037000801149084FEA30000019514132462B469E
:1003800003B0BDE8F04F00F01CB900980122400016
:100390000023D0EB020263EBE073009821464FEAA2
:1003A000E074B8EB000061EB0401E9E783F000437F
:1003B0005BE781F0004158E72DE9F04D81EA030445
:1003C00004F0004B21F0004514464FF0000A23F0E2
:1003D000004150EA050220D054EA01021DD0C5F3C5
:1003E0000A570246C5F31303C1F31300C1F30A56BB
:1003F00040F4801543F48013A7EB0608101BD64683
:1004000008F2FD3873EB050002D308F1010801E0A2
:1004100092185B41B8F1000F03DA00200146BDE8F5
:10042000F08D00204FF48011064684460EE0171B25
:1004300073EB050705D3121B63EB050306434CEA78
:10044000010C49084FEA300092185B4150EA01075D
:10045000EDD152EA030012D082EA040083EA0501DA
:10046000084305D0101BAB4106D20122002306E051
:1004700000224FF0004302E06FF0010253101AEB2C
:1004800006004CEB085110EB0A0041EB0B01BDE8F4
:10049000F04D00F096B80EB5C10F80EAE070084448
:1004A000CA07002140F233438DE80E000A460B468E
:1004B00000F096F803B000BD0EB540F23341029152
:1004C0000021CDE900110A460B4600F089F803B07F
:1004D00000BD000030B5041E71F1000404DB4FF0D4
:1004E0000044404264EB0101141E73F1000405DB7B
:1004F0001C464FF00043524263EB04038B4208BF9B
:10050000824230BD30B5041E71F1000404DB4FF0AF
:100510000044404264EB0101141E73F1000405DB4A
:100520001C464FF00043524263EB0403994208BF5C
:10053000904230BD30B50B460146002020220124F8
:1005400009E021FA02F59D4205D303FA02F5491BA1
:1005500004FA02F52844151EA2F10102F1DC30BDB7
:10056000202A04DB203A00FA02F100207047914073
:10057000C2F1200320FA03F3194390407047202A68
:1005800004DB203A21FA02F00021704721FA02F33D
:10059000D040C2F120029140084319467047202AFA
:1005A00006DBCB17203A41FA02F043EAE07306E09B
:1005B00041FA02F3D040C2F12002914008431946AB
:1005C000704710B5141E73F1000408DA401C41F1A5
:1005D000000192185B411A4301D120F0010010BDC7
:1005E0002DE9F04D92469B4611B1B1FA81F202E03D
:1005F000B0FA80F220329046FFF7B2FF04460F4671
:1006000040EA0A0041EA0B0153465A46084313D018
:10061000114653EA010019D0C8F140025046FFF7D5
:10062000AEFF05460E46504659464246FFF798FF34
:10063000084305D0012004E020463946BDE8F08D8E
:100640000020054346EAE0762C4337430A986305C9
:10065000E40AA0EB08000022FD0A44EA47540A30ED
:1006600002D500200146E9E7010510196941DDE9DD
:10067000084500196941BDE8F04DA2E7064C074D59
:1006800006E0E06840F0010394E807009847103462
:10069000AC42F6D3FFF77CFD98380008B838000864
:1006A0000FB4362230B5ABB00446002020702FA91D
:1006B00012A8FFF7B6FDBDF8F200ADF87E003D9838
:1006C0002090BDF8F800ADF88400BDF8FA00ADF850
:1006D00086003FA911220D4622A8FFF7A2FD9DF832
:1006E0000D018DF8990044982790482216A9684674
:1006F000FFF797FD0DF1480C9CE80F0000F08AFB16
:1007000036222FA914A8FFF78CFDBDF8F200ADF832
:1007100086003D982290BDF8F800ADF88C00BDF839
:10072000FA00ADF88E001122294624A8FFF779FDC2
:100730009DF80D018DF8A10044982990502216A92A
:100740006846FFF76EFDDDE914231921012002F050
:1007500051F936222FA914A8FFF763FDBDF8F20066
:10076000ADF886003D982290BDF8F800ADF88C00F9
:10077000BDF8FA00ADF88E001122294624A8FFF733
:1007800050FD9DF80D018DF8A1004498299050224C
:1007900016A96846FFF745FDDDE914232E21022046
:1007A00002F028F936222FA914A8FFF73AFDBDF868
:1007B000F200ADF886003D982290BDF8F800ADF843
:1007C0008C00BDF8FA00ADF88E001122294624A84D
:1007D000FFF727FD9DF80D018DF8A10044982990A1
:1007E000502216A96846FFF71CFDDDE914230021FD
:1007F000042002F0FFF836222FA914A8FFF711FDFC
:10080000BDF8F200ADF886003D982290BDF8F800E2
:10081000ADF88C00BDF8FA00ADF88E001122294623
:1008200024A8FFF7FEFC9DF80D018DF8A100449867
:100830002990502216A96846FFF7F3FCDDE914233E
:100840000021052002F0D6F836222FA914A8FFF7C0
:10085000E8FCBDF8F200ADF886003D982290BDF8A6
:10086000F800ADF88C00BDF8FA00ADF88E0011224A
:10087000294624A8FFF7D5FC9DF80D018DF8A100AD
:1008800044982990502216A96846FFF7CAFCDDE972
:1008900014230421062002F0ADF836222FA914A853
:1008A000FFF7BFFCBDF8F200ADF886003D9822903E
:1008B000BDF8F800ADF88C00BDF8FA00ADF88E0078
:1008C0001122294624A8FFF7ACFC9DF80D018DF8F4
:1008D000A10044982990502216A96846FFF7A1FC70
:1008E000DDE914230021072002F084F836222FA925
:1008F00014A8FFF796FCBDF8F200ADF886003D980D
:100900002290BDF8F800ADF88C00BDF8FA00ADF803
:100910008E001122294624A8FFF783FC9DF80D01C3
:100920008DF8A10044982990502216A96846FFF737
:1009300078FCDDE914231E210A2002F05BF8362240
:100940002FA914A8FFF76DFCBDF8F200ADF88600E2
:100950003D982290BDF8F800ADF88C00BDF8FA0083
:10096000ADF88E001122294624A8FFF75AFC9DF805
:100970000D018DF8A10044982990502216A96846CF
:10098000FFF74FFCDDE9142302210C2002F032F8BE
:1009900036222FA914A8FFF744FCBDF8F200ADF8E9
:1009A00086003D982290BDF8F800ADF88C00BDF8A7
:1009B000FA00ADF88E001122294624A8FFF731FC79
:1009C0009DF80D018DF8A10044982990502216A998
:1009D0006846FFF726FCDDE914230021112002F010
:1009E00009F836222FA914A8FFF71BFCBDF8F20066
:1009F000ADF886003D982290BDF8F800ADF88C0067
:100A0000BDF8FA00ADF88E001122294624A8FFF7A0
:100A100008FC9DF80D018DF8A10044982990502202
:100A200016A96846FFF7FDFBDDE914230421122017
:100A300001F0E0FF36222FA914A8FFF7F2FBBDF862
:100A4000F200ADF886003D982290BDF8F800ADF8B0
:100A50008C00BDF8FA00ADF88E001122294624A8BA
:100A6000FFF7DFFB9DF80D018DF8A1004498299058
:100A7000502216A96846FFF7D4FBDDE9142318219C
:100A8000132001F0B7FF36222FA914A8FFF7C9FBE6
:100A9000BDF8F200ADF886003D982290BDF8F80050
:100AA000ADF88C00BDF8FA00ADF88E001122294691
:100AB00024A8FFF7B6FB9DF80D018DF8A10044981E
:100AC0002990502216A96846FFF7ABFBDDE91423F5
:100AD0002421142001F08EFF36222FA914A8FFF73D
:100AE000A0FBBDF8F200ADF886003D982290BDF85D
:100AF000F800ADF88C00BDF8FA00ADF88E001122B8
:100B0000294624A8FFF78DFB9DF80D018DF8A10063
:100B100044982990502216A96846FFF782FBDDE928
:100B200014230021172001F065FF36222FA914A8F5
:100B3000FFF777FBBDF8F200ADF886003D982290F4
:100B4000BDF8F800ADF88C00BDF8FA00ADF88E00E5
:100B50001122294624A8FFF764FB9DF80D018DF8AA
:100B6000A10044982990502216A96846FFF759FB26
:100B7000DDE914230021252001F03CFF36222FA9B6
:100B800014A8FFF74EFBBDF8F200ADF886003D98C3
:100B90002290BDF8F800ADF88C00BDF8FA00ADF871
:100BA0008E001122294624A8FFF73BFB9DF80D017A
:100BB0008DF8A10044982990502216A96846FFF7A5
:100BC00030FBDDE914230221212001F013FF36223E
:100BD0002FA914A8FFF725FBBDF8F200ADF8860099
:100BE0003D982290BDF8F800ADF88C00BDF8FA00F1
:100BF000ADF88E001122294624A8FFF712FB9DF8BC
:100C00000D018DF8A10044982990502216A968463C
:100C1000FFF707FBDDE914238021222001F0EAFE23
:100C200036222FA914A8FFF7FCFABDF8F200ADF8A0
:100C300086003D982290BDF8F800ADF88C00BDF814
:100C4000FA00ADF88E001122294624A8FFF7E9FA30
:100C50009DF80D018DF8A10044982990502216A905
:100C60006846FFF7DEFADDE914238021232001F036
:100C7000C1FE36222FA914A8FFF7D3FABDF8F2005F
:100C8000ADF886003D982290BDF8F800ADF88C00D4
:100C9000BDF8FA00ADF88E001122294624A8FFF70E
:100CA000C0FA9DF80D018DF8A100449829905022BA
:100CB00016A96846FFF7B5FADDE9142308212720B5
:100CC00001F098FE36222FA914A8FFF7AAFABDF862
:100CD000F200ADF886003D982290BDF8F800ADF81E
:100CE0008C00BDF8FA00ADF88E001122294624A828
:100CF000FFF797FA9DF80D018DF8A100449829900F
:100D0000502216A96846FFF78CFADDE9142330213A
:100D10002F2001F06FFE36222FA912A8FFF781FACB
:100D2000BDF8F200ADF87E003D982090BDF8F800C7
:100D3000ADF88400BDF8FA00ADF88600112229460E
:100D400022A8FFF76EFA9DF80D018DF899004498DE
:100D50002790482216A96846FFF763FA12AD95E876
:100D60000F0000F086F8012020702BB030BC5DF839
:100D700014FB000010B501221021064800F0C8F94C
:100D800001221021044800F0C3F9BDE810400A20F8
:100D900000F0D0B8000002400008024010B50A4C34
:100DA00000220821204600F0B3F94FF47A7000F0D9
:100DB000C1F801220821204600F0AAF9BDE8104040
:100DC000642000F0B7B80000000402400FB46423B0
:100DD00010B51C220D4902A801F05CFCC82000F0EF
:100DE000A9F80A4964231C221C3102A801F052FC14
:100DF000C82000F09FF8054964231C22383102A85E
:100E000001F048FC10BC5DF814FB000079000020E4
:100E1000FEE770470FB4362200B5ABB02CA914A87A
:100E2000FFF7FFF9BDF8E600ADF886003A9822908A
:100E3000BDF8EC00ADF88C00BDF8EE00ADF88E000A
:100E400011223CA924A8FFF7ECF99DF801018DF8C7
:100E5000A10041982990502216A96846FFF7E1F9B0
:100E6000DDE914230021084601F0C4FD2BB05DF834
:100E700014FB0FB4362200B5ABB02CA914A8FFF7B1
:100E8000D0F9BDF8E600ADF886003A982290BDF89A
:100E9000EC00ADF88C00BDF8EE00ADF88E0011222C
:100EA0003CA924A8FFF7BDF99DF801018DF8A10028
:100EB00041982990502216A96846FFF7B2F9DDE95A
:100EC00014230121002001F095FD2BB00A205DF8CC
:100ED00014EB00F02FB8000010B5002210210448D8
:100EE00000F016F9BDE81040642000F023B80000BF
:100EF0000004024010B501221021044800F008F956
:100F0000BDE81040642000F015B800000004024065
:100F100090F83510022903D08021416501207047E7
:100F2000052180F835100068016821F00101016099
:100F30000020704770B5044600F0F0F80546601CCC
:100F400002D004480078044400F0E8F8401BA042B6
:100F5000FAD370BD080100202DE9F84F00224FF0B0
:100F6000010803254FF00F0E0B6808FA02F4234026
:100F7000A3426ED14E68012E05D0022E03D0112E51
:100F800001D0122E12D186684FEA420C05FA0CF7F6
:100F9000BE43CF6807FA0CF7374387604668A6431D
:100FA0000C79C4F30014944034434460C66857007D
:100FB00005FA07FC8C6826EA0C06BC403443C46082
:100FC0004C68022C01D0122C13D1D40800EB8404FD
:100FD000A346D4F8209054074FEAD46A0EFA0AF6D2
:100FE00029EA06090E6906FA0AF646EA0906CBF866
:100FF000206006680C7926EA0C0604F00304BC4065
:10100000344304604C68E40065D5364C266846F4E9
:1010100080462660246822F0030604F4804400948D
:10102000314C3444A446D4F808489607370F0EFADA
:1010300007F6B4432D4EB04201D1002624E02C4ED9
:10104000B04201D101261FE02A4EB04202D1022651
:101050001AE040E0284EB04201D1032614E0274EAA
:10106000B04201D104260FE0254EB04201D1052641
:101070000AE0244EB04201D1062605E0224EB042DD
:1010800001D1072600E00826BE402643CCF80868B8
:101090001E4E34684F689C43FF0300D51C433460E8
:1010A0001A4C241D26684F689E43BF0300D51E437B
:1010B0002660164E083634684F689C43FF0200D500
:1010C0001C433460114E0C3634684F689C43BF0299
:1010D00000D51C433460521C102AFFF445AFBDE814
:1010E000F88F000044380240003001400000024008
:1010F0000004024000080240000C024000100240C0
:101100000014024000180240001C0240003C014054
:101110000AB1816170470904FBE70000014880685B
:1011200070470000080100200248816802781144DD
:1011300081607047080100200B4810B5016841F438
:1011400000710160016841F480610160016841F44F
:1011500080710160032000F06FF8002000F006F8B5
:1011600000F024F8002010BD003C024070B50D4D89
:1011700004464FF47A712878B1FBF0F00A49096807
:10118000B1FBF0F000F0BFFD48B9102C07D20022EF
:101190002146501E00F030F800206C6070BD012028
:1011A00070BD000008010020140100200A4808B5A5
:1011B000016841F480410160006800F480400090C3
:1011C0000548001F016841F080510160006800F08F
:1011D0008050009008BD000044380240002809DB20
:1011E00000F01F02012191404009800000F1E02041
:1011F000C0F8001170470000F0B40E4B1B680C469D
:10120000C3F30223C3F10705042D00D90425191DDA
:10121000072901D2002300E0DB1E012606FA05F1B2
:10122000491E214099409E40761E16403143F0BC35
:1012300001F014BF0CED00E0064900F00702086859
:101240004FF6FF03184040EA0220034A10430860AB
:10125000704700000CED00E00000FA052DE9F047B2
:101260000E46050065D0DFF81481D8F80000F7B20B
:1012700000F00F00B04207D288F80070D8F80000E4
:1012800000F00F00B04254D128683D4C810712D5C0
:10129000400703D5206840F4E0502060287800071C
:1012A00003D5206840F4604020602068A96820F0E1
:1012B000F000084320602878C0072DD030496868C6
:1012C0000839012812D0022813D0032811D0096848
:1012D000890700292DDA216821F0030101432160EB
:1012E000FFF71CFF814641F2883A0EE00968890346
:1012F000EFE709688901ECE7FFF710FFA0EB0901B0
:10130000514502D90320BDE8F0872068696800F0E4
:101310000C00B0EB810FEFD1D8F80010404601F07F
:101320000F01B14207D90770006800F00F00B0420A
:1013300001D00120E7E72878400705D52068E96853
:1013400020F4E050084320602878000706D5206884
:10135000296920F4604040EAC100206000F038F8BC
:101360002168084AC1F30311515CC840064908606E
:1013700006480068FFF7FAFE0020C4E7003C024080
:101380000838024080380008140100200C010020B9
:101390000448054900680968044AC1F38221515C88
:1013A000C8407047140100200838024090380008F7
:1013B0000448054900680968044AC1F34231515C98
:1013C000C8407047140100200838024090380008D7
:1013D000154810B5006810F00C02144813D01449D9
:1013E000042A0FD0082A0ED10F4C241F226823682C
:1013F00002F03F025B0207D52068C0F38810A0FB13
:10140000010106E0084610BD2168C1F38811A1FB67
:1014100000010023FEF7D4FE2168C1F30141491CFD
:101420004900B0FBF1F010BD083802400024F40080
:1014300040787D012DE9F84F040076D02078DFF860
:1014400038A3CE4DC00749D0DAF800105046C1F39A
:101450008101012908D00068C0F3810002280AD167
:10146000281D0068400206D52868800336D56068CC
:101470000028E2D032E06068B0F5803F10D0B0F5CF
:10148000A02F286810D020F480302860286820F42D
:10149000802028606068A0B1FFF740FE06460CE09F
:1014A000286840F48030F4E740F480202860F7E7B3
:1014B000FFF734FE801B642873D828688003F7D5B3
:1014C0000CE0FFF72BFE064605E000BFFFF726FE07
:1014D000801B6428F0D828688003F7D42078DFF8D0
:1014E000A08280074FF000093ED5DAF80010504680
:1014F00011F00C0F09D00068C0F3810002280BD155
:101500009D48001F0068400206D42868800715D552
:10151000E068012809D111E0E068B8B10120C8F8FD
:101520000000FFF7FBFD064605E020E1FFF7F6FDB2
:10153000801B0228C0D828688007F7D52868216951
:1015400020F0F80040EAC10028600DE0C8F80090E3
:10155000FFF7E4FD064604E0FFF7E0FD801B0228EC
:101560001FD828688007F7D42078000722D5824E3C
:10157000844861696C3671B101210160FFF7CEFDCD
:10158000074604E0FFF7CAFDC01B022809D83068EF
:101590008007F7D50EE0C0F80090FFF7BFFD0746C3
:1015A00005E082E0FFF7BAFDC01B02287DD8306855
:1015B0008007F7D42078400768D5DFF8BCB1002752
:1015C0000BF1380BDBF80000C0000BD4DBF8001087
:1015D00041F08051CBF80010DBF80000012700F04B
:1015E00080500090684E3068C00510D4306840F4D8
:1015F00080703060FFF792FD009005E0FFF78EFDF0
:101600000099401A022850D83068C005F6D55A4EC5
:10161000A068683601280FD00528306810D020F067
:1016200001003060306820F004003060A068B8B17C
:10163000FFF774FD00900FE0306840F00100F4E720
:1016400040F004003060F7E7FFF768FD0099411AA9
:1016500041F28830814266D830688007F4D50EE0C8
:10166000FFF75CFD009007E0FFF758FD0099411A75
:1016700041F28830814256D830688007F4D42FB1C7
:10168000DBF8001021F08051CBF80010A069D0B336
:10169000DAF800205146C2F38102022A4AD0022819
:1016A000484607D0C8F8600000E03CE0FFF736FD90
:1016B00004463BE04746C8F86000FFF72FFD0646AA
:1016C00005E000BFFFF72AFD801B02282BD8286801
:1016D0008001F7D4D4E907010843A16A2B4A4908DD
:1016E00002EB0141626A41EA8211084394F82C102E
:1016F00040EA01612048001F016001203866FFF7C1
:101700000DFD044605E034E0FFF708FD001B02284C
:1017100009D828688001F7D52BE000BFFFF7FEFC51
:10172000001B022802D90320BDE8F88F2868800139
:10173000F4D41EE00128F7D00868E26900F48001C3
:10174000914214D1226A00F03F0191420FD147F635
:10175000C071626A0140914209D1A26A00F440312D
:10176000914204D1E16A00F07060884201D001200A
:10177000DAE70020D8E700000838024000380240CD
:1017800000004742800E4742007000400000FFFF0B
:1017900070B5040005D00025A56294F8510010B181
:1017A00006E0012070BD84F85050204600F030F86B
:1017B000022084F851002068016821F04001016096
:1017C000D4E901010843D4E90312114308436169D4
:1017D0000843218B01F400710843E1690843216A41
:1017E0000843A16A084321680860A069042101EA4E
:1017F0001040616A0843216848602068C16921F48B
:101800000061C1616565012084F85100002070BD50
:1018100010B586B0044614216846FEF71BFD134937
:101820002068884220D112480021026842F4805288
:101830000260006800F4805005900D48143802687A
:1018400042F001020260006800F001000590E02013
:1018500000900220CDE901010320039005200490AF
:1018600069460448FFF778FB06B010BD0030014020
:1018700044380240000002402DE9F84F0446406819
:101880000025984616460F464FF0040BB0F5827FB0
:1018900001D1A06888B194F85000012818D0012027
:1018A00084F85000FFF73AFC814694F851004FF05D
:1018B000000A01280ED002257DE084F851B01346BD
:1018C0000A462046CDF8008000F02CF9BDE8F88FDC
:1018D0000220FBE7002F6DD0002E6BD084F851B0B2
:1018E000C4F854A0A763A687E687C4F830A0A4F87C
:1018F00034A0A4F836A0C4F840A0C4F844A0A0685E
:10190000B0F5004F04D12068016821F480410160E6
:1019100020680168490603D4016841F04001016074
:10192000E068D8B139E020688168C90709D0007B38
:10193000A16B0870A06B401CA063E08F401EE08785
:101940000CE0FFF7EBFBA0EB0901414503D3B8F135
:10195000FF3F03D036E0B8F1000F33D0E08F00280E
:10196000E1D11DE020688168C90709D0C068A16B7A
:101970000880A06B801CA063E08F401EE0870CE015
:10198000FFF7CCFBA0EB0901414503D3B8F1FF3FC2
:1019900003D017E0B8F1000F14D0E08F0028E1D198
:1019A0004A464146204601F04BF808B120206065C8
:1019B000606D00B10125012084F8510084F850A029
:1019C000284683E70325F6E72DE9F84F044690F80B
:1019D000500000271D461646894601280DD04FF0BD
:1019E000010B84F850B0FFF799FB804694F8510042
:1019F000BA46012804D002278EE00220BDE8F88F05
:101A0000B9F1000F7DD0002E7BD0032084F8510067
:101A1000C4F854A0C4F83090A686E686C4F838A06E
:101A2000A4F83CA0A4F83EA0C4F844A0C4F840A088
:101A3000A068B0F5004F04D12068016841F48041EE
:101A4000016020680168490603D4016841F0400143
:101A50000160E068B0F5006F606803D030B3012E1C
:101A600024D040E008B1012E1CD1206B21680088F1
:101A7000C86006E020688168890709D5216B09885C
:101A8000C160206B801C2063E08E401EE08609E070
:101A9000FFF744FBA0EB0800A84202D3681C01D06A
:101AA00031E07DB3E08E0028E4D11FE0206B216897
:101AB0000078087306E020688168890709D5216BE2
:101AC00009780173206B401C2063E08E401EE08685
:101AD00009E0FFF723FBA0EB0800A84202D3681C33
:101AE00001D010E075B1E08E0028E4D142462946CD
:101AF000204600F0D3FF08B120206065A06820B127
:101B000007E008E0FFE7032706E02068C168806877
:101B10000090606D00B1012784F851B084F850A0A6
:101B200038466BE72DE9F84F044690F8500000273F
:101B30000A9E1D4692468B464FF0010901280ED0A1
:101B4000012084F85000FFF7E9FA804694F851002C
:101B5000616801280CD0B1F5827F07D102E0022034
:101B6000BDE8F88FA16809B9042801D00227C2E0B6
:101B7000BBF1000F27D0BAF1000F24D01DB394F8A9
:101B80005100042802D0052084F85100002060652F
:101B9000C4F838A0E587A587C4F830B0E586A586E7
:101BA0002064606420680168490603D4016841F03C
:101BB00040010160E068B0F5006F606805D0E8B3EF
:101BC000012D46D07FE0012795E008B1012D39D1E4
:101BD000206B21680088C860206B801C2063E08E29
:101BE000401EE0862EE02068816889070FD5E18ECF
:101BF00069B1B9F1010F0AD1216B0988C160206B6D
:101C0000801C2063E08E401EE0864FF000092068B3
:101C10008168C9070CD0E18F51B1C068A16B088001
:101C2000A06B801CA063E08F401EE0874FF001098D
:101C3000FFF774FAA0EB0800B04200E009E001D31E
:101C4000701C50D1E08E0028CDD1E08F0028CAD181
:101C50003FE0206B216800780873206B401C2063F4
:101C6000E08E401EE0862EE02068816889070FD54F
:101C7000E18E69B1B9F1010F0AD1216B09780173C5
:101C8000206B401C2063E08E401EE0864FF0000970
:101C900020688168C9070CD0E18F51B1C068A16B81
:101CA0000870A06B401CA063E08F401EE0874FF0DF
:101CB0000109FFF733FAA0EB0800B04202D3701C11
:101CC00001D010E07EB1E08E0028CDD1E08F002859
:101CD000CAD142463146204600F0E0FE28B1012735
:101CE0002020606507E0032705E0A06818B9206898
:101CF000C16880680090012084F85100002084F8B9
:101D0000500038462CE710B5401EB0F1807F01D35B
:101D1000012010BD4FF0E02460610F21601701F039
:101D20009DF90020A06107202061002010BD7047B0
:101D30007047000070B590F83C20012A32D0012491
:101D400080F83C40022280F83D2003685A689D6874
:101D500022F070060A6832435A60134B02689A42B6
:101D600014D0B2F1804F11D0104B9A420ED0104BCC
:101D70009A420BD00F4B9A4208D00F4B9A4205D093
:101D80000E4B9A4202D00E4B9A4204D1496825F07C
:101D900080031943916080F83D40002180F83C1099
:101DA000084670BD022070BD0000014000040040E4
:101DB00000080040000C00400004014000400140C9
:101DC0000018004010B5040003D094F83D0010B195
:101DD00007E0012010BD002084F83C00204600F000
:101DE0000DF8022084F83D00211D206800F026FF38
:101DF000012084F83D00002010BD000008B50068F7
:101E00000B49884212D10B48016841F00201016080
:101E10000068002200F00200009011461D20FFF72C
:101E2000EBF9BDE808401D20FFF7D8B908BD000058
:101E300000040040403802400168CA6842F00102D4
:101E4000CA600068816801F00701062903D00168B3
:101E500041F0010101600020704770B5044690F820
:101E60003C00012817D0012584F83C50022084F85A
:101E70003D002068826822F0770222F47F4282606F
:101E80000868502830D00DDC20284DD005DC98B3F0
:101E900010283BD148E0022070BD302844D04028B3
:101EA00034D139E0602828D0702806D0B0F5805FA2
:101EB0002CD0B0F5005F29D10AE0CB68D1E901212F
:101EC000206800F01FFF2068816841F0770109E079
:101ED000CB68D1E90121206800F014FF20688168F7
:101EE00041F48041816011E0CA684968206800F0CF
:101EF0001BFF5021206807E016E0CA684968206887
:101F000000F023FF6021206800F006FF84F83D50B8
:101F1000002084F83C0070BDCA684968206800F061
:101F200003FF40212068EFE7226801461046EBE7F7
:101F3000704770B50446006801694FF00005C94359
:101F4000890715D4C168C943890711D4E91E016105
:101F500001202077206880698007204602D0FFF7A3
:101F6000E7FF04E000F098F8204600F096F82577A7
:101F700020680169C943490717D4C168C9434907A3
:101F800013D46FF00401016102202077206880697A
:101F900010F4407F204602D0FFF7CAFF04E000F0B3
:101FA0007BF8204600F079F8257720680169C9435D
:101FB000090716D4C168C943090712D46FF0080194
:101FC0000161042020772068C0698007204602D084
:101FD000FFF7AEFF04E000F05FF8204600F05DF888
:101FE000257720680169C943C90617D4C168C94368
:101FF000C90613D46FF01001016108202077206812
:10200000C06910F4407F204602D0FFF791FF04E042
:1020100000F042F8204600F040F82577206801697A
:10202000C943C90708D1C168C943C90704D1891E7A
:102030000161204600F032F820680169C9430906B1
:1020400009D4C168C943090605D46FF08001016154
:102050002046FFF76CFE20680169C943490609D490
:10206000C168C943490605D46FF0400101612046AB
:1020700000F078F920680169C94389060BD4C1686A
:10208000C943890607D46FF0200101612046BDE8ED
:102090007040FFF74DBE70BD7047704770B5006867
:1020A0009849AAB0884272D13622974914A8FEF7FF
:1020B000B8F8954CE08EADF88600A06B2290A08F0A
:1020C000ADF88C00E08FADF88E00112204F14001D4
:1020D00024A8FEF7A6F894F851008DF8A100606DD1
:1020E0002990502216A96846FEF79BF8DDE91423D3
:1020F0000621864800F056FC844A0025A2F15804C7
:1021000010785178000440EA01209178084320615A
:10211000D17813790904527941EA032111436161AD
:10212000E27A002A5ED0E26A32B1012A04D0022AA1
:1021300009D0032A07D00CE0D4E9183118186941F6
:10214000C4E9180105E0D4E9183059186841C4E918
:102150001810606B4FF44076401C6063B0423FD172
:1021600035208DF80000032A06DA6748642301222F
:102170006946983000F08EFAE06A411CE16238B19D
:1021800001280ED0022817D0032825D11DE027E012
:10219000D4E9180132460023FEF712F820645CA04F
:1021A00007E0D4E9180132460023FEF709F860641D
:1021B00059A000F043FF0FE0D4E918013246002394
:1021C000FDF7FEFFA06356A0F3E7D4E918013246FD
:1021D0000023FDF7F5FFE06300216563C4E91811F2
:1021E0002AB070BD227B002AFAD0627901267AB922
:1021F000A269292A00D1A670E269292A00D1E670D5
:10220000226A292A00D12671626A292A00D16671C0
:10221000454BA26943F82200444B43F8221001F0D9
:1022200035F8434AA16942F82100491CA161A07810
:1022300080B14049E26920693F4B41F82200616961
:1022400043F8221001F022F83C4AE16942F82100EB
:10225000491CE161E07880B13949226A2069394B33
:1022600041F82200616943F8221001F00FF8364A64
:10227000216A42F82100491C2162207980B133494A
:10228000626A2069324B41F82200616943F82210EA
:1022900000F0FCFF2F4A616A42F82100491C61628C
:1022A000607980B12C49A26A20692C4B41F8220048
:1022B000616943F8221000F0E9FF294AA16A42F857
:1022C0002100491CA162A069CD280FD0E069CD286A
:1022D0000FD0206ACD280FD0606ACD280FD0A06A19
:1022E000CD287FF47DAFA672A56279E7A671A561BE
:1022F00076E7E671E56173E72672256270E766723C
:1023000065626DE7000400402001002058000020B5
:10231000444F574E0D0A00004C4546540D0A00002C
:1023200052494748540D0A00780200207C120020D0
:10233000E8280020AC050020B01500201C2C00204F
:10234000E0080020E4180020502F0020140C00208A
:10235000181C002084320020480F00204C1F002051
:10236000B83500207047704770B5026804461068A1
:10237000D168536910F00F0F52D003F0010501F43A
:1023800090762E435FD0C20705D0CA0503D5E26B15
:1023900042F00102E263420705D5DA0703D0E26B9F
:1023A00042F00202E263820705D5DA0703D0E26B4E
:1023B00042F00402E263020707D501F020022A433B
:1023C00003D0E26B42F00802E263E26B002A33D0F2
:1023D000800604D5880602D5204600F0DEFC206881
:1023E0004069E16BC0F38010090700D428B3204690
:1023F00000F0C5FC2068416949061AD5416921F001
:1024000040014161606BA0B11B490165606BFEF743
:102410007FFD002810D0606B016DBDE8704008475B
:10242000830610D58B060ED52046BDE8704000F01F
:10243000B4BC2046FFF797FF70BD2046FFF793FF1F
:102440000020E06370BD030606D50B0604D52046C8
:10245000BDE8704000F080BD4006F3D54806F1D5D8
:10246000D168204621F04001D160202184F8391044
:1024700000F06DF970BD00006F2D000870B504000C
:1024800004D094F83900002510B106E0012070BD99
:1024900084F83850204600F023F8242084F83900CE
:1024A0002068C16821F40051C160204600F0C0FCE2
:1024B0002068016921F4904101612068416921F09F
:1024C0002A0141612068C16841F40051C160E5639F
:1024D000202084F8390084F83A00002070BD000004
:1024E000F0B587B0044614216846FDF7B3FE2A48CC
:1024F000284F2668002228491438C02302240325C7
:10250000BE4220D10E6846F010060E60096801F048
:1025100010010591016841F002010160006800931B
:1025200000F0020005900720CDE90350CDE90142FB
:1025300069461A48FEF710FD002211462520FEF7D5
:102540005BFE252022E0164FBE4221D10E6846F0E8
:1025500020060E60096801F020010591016841F034
:10256000040101600068009300F004000590082059
:10257000CDE90350CDE9014269460A48FEF7ECFC7B
:10258000002211464720FEF737FE4720FEF726FEC1
:1025900007B0F0BD00100140443802400004024082
:1025A000001401400008024090F83A30202B22D15C
:1025B000F9B1F2B190F83830012B1CD081628285DC
:1025C000C2850021C163222280F83A2080F83810A9
:1025D0000168CA6842F48072CA6001684A6942F0C0
:1025E00001024A610068C16841F02001C160002019
:1025F00070470120704702207047000070B5064602
:1026000000681E49884223D11D4C1E4A00252178AE
:1026100021B900201554401C4028FBDB607B0D28AD
:1026200003D05054491C21700BE0022908D1507886
:10263000632805D1257314A000F000FD0120E0728D
:1026400025700F490F4801220D318038FFF7ACFF8C
:102650000F493068884210D109490A486423012291
:102660000E31803800F016F80549BDE87040054885
:1026700001220E314038FFF797BF70BD00100140B6
:10268000000000203802002055500D0A0000000014
:10269000001401402DE9F843044690F839001F4624
:1026A00016460D46202850D1B5B1AEB194F8380089
:1026B00001284AD0012084F838004FF00008C4F8FF
:1026C0003C80212084F83900FEF728FDA68481464D
:1026D000E68484F8388026E00120BDE8F883E08CA9
:1026E000401EE084A0684B46B0F5805F4FF00002CA
:1026F0004FF080012046009703D000F05EFCE8B95F
:102700000DE000F05AFCC8B928882168C0F3080021
:102710004860206908B16D1C05E0AD1C03E021682C
:1027200015F8010B4860E08C0028D8D14B460022F8
:1027300040212046009700F040FC08B10320CCE780
:10274000202084F839000020C7E70220C5E7704741
:10275000FEE700000FB400B59DB0FEF71FFBFEF7CB
:10276000BBFB4FF4FA70FEF7E5FB26221EA90CA86E
:10277000FDF757FDBDF89E00ADF85600289816905D
:10278000BDF8A400ADF85C00BDF8A600ADF85E0091
:1027900009222AA918A8FDF744FD9DF8B1008DF87B
:1027A00069009DF8B2008DF86A002D981B903022C8
:1027B00010A96846FDF735FD0DF1300C9CE80F00BF
:1027C000FEF704FBC820FEF7B5FB642311221F4966
:1027D0001EA8FFF75FFFC820FEF7ACFB1B49642370
:1027E0000C2265311EA8FFF755FF6420FEF7A2FBFF
:1027F000164964230C2271311EA8FFF74BFF642099
:10280000FEF798FB114964230C227D311EA8FFF7C7
:1028100041FF6420FEF78EFB0C4964230B228931B3
:102820001EA8FFF737FF6420FEF784FB07496423E7
:102830000A2294311EA8FFF72DFF6420FEF77AFBD1
:10284000FEF758FB1DB05DF814FB00006800002087
:102850002DE9F04186B014216846FDF7FBFC2A48BB
:102860000024016841F080010160016801F08001ED
:102870000591016841F001010160016801F0010169
:102880000591016841F004010160016801F0040153
:102890000591016841F00201016000681B4F00F0E2
:1028A00002000590002210213846FEF731FCDFF8C7
:1028B0006080002218214046FEF72AFC102000907C
:1028C0000125CDE90154694638460394FEF744FBDF
:1028D0002026CDE90064694638460294FEF73CFBA9
:1028E00018200090CDE90154694640460394FEF754
:1028F00033FBCDE90064694640460294FEF72CFBA9
:1029000006B0BDE8F0810000303802400008024007
:10291000000402400B480A494FF4007201604FF472
:102920008271416000218160C1600161C0E90512CE
:10293000C1610162416281620A21C162FEF728BF62
:10294000003001402001002010B586B0002412485C
:10295000009401940294039404940E490594016038
:10296000C821C0E9011440F26761C0E90314846121
:10297000FFF728FA4FF48050009069460648FFF7A9
:102980006CFA049404A904480594FFF7D3F906B03F
:1029900010BD00000004004078010020FEE77047F1
:1029A000704700000FB40022F8B50646D020104F43
:1029B0000D468DF8000010213846FEF7A9FB0A23CA
:1029C0000122694608A8FEF7FFFF002406E031193E
:1029D0000A23012208A8FEF74FFF641CAC42F6DB75
:1029E000012210213846FEF793FBF8BC5DF814FB7A
:1029F000000802400FB400F07F0038B50F4C8DF88E
:102A000000008DF80110002210212046FEF780FB07
:102A10000A230122694606A8FEF7D6FF0A230122EF
:102A200006A80DF10101FEF7CFFF0122102120467B
:102A3000FEF76EFB38BC5DF814FB00000008024096
:102A4000F8B5044640684FF48273984221D1A068DB
:102A50004FF48065B0F5004F01D0A8420AD120683C
:102A6000066826F0400606606068984211D1A068AA
:102A7000A8420ED000920B4600228021204600F092
:102A800039F8002804D0606D40F020006065032014
:102A9000F8BD00920B4600220121EFE738B504464D
:102AA0001248134B0068B0FBF3F04FF47A735843AD
:102AB00000906068B0F5827F0DD10B460092002235
:102AC0008021204600F016F870B1606D40F02000C3
:102AD0006065032038BD009830B1401E009020682A
:102AE0008068C0430006F6D5002038BD14010020E0
:102AF00000366E012DE9F0411D4617460E4604468C
:102B0000DDF8188008E0681C06D0FEF707FBA0EB94
:102B10000800A8420BD255B12068806836EA000050
:102B200030D00020B842EED10020BDE8F08120680E
:102B3000416821F0E00141606068B0F5827F0BD10F
:102B4000A068B0F5004F02D0B0F5806F04D12068C6
:102B5000016821F040010160A06AB0F5005F09D171
:102B60002068016821F4005101602068016841F487
:102B700000510160012084F85100002084F85000C9
:102B80000320D2E70120CDE77047FEF7CDBA000061
:102B900030B593B030216846FDF75CFB14210CA8DA
:102BA000FDF758FB19480025016841F0805101608C
:102BB000006800F0805011901548016841F4804190
:102BC00001600068022400F480401190012003900D
:102BD00010200490009406940820CDE90750A82006
:102BE000CDE9090404200B906846FEF723FC0CA9EC
:102BF0000F2081E831004FF4A0500F90E0021090B8
:102C000005210CA8FEF72AFB13B030BD4038024066
:102C1000007000400548016841F4700101600349FB
:102C20004FF00060803908607047000088ED00E0D8
:102C30000148FFF77EB9000078010020F0B5026876
:102C4000254C264D264E274F274B4FF0804CA04257
:102C500009D0604507D0A84205D0B04203D0B842A1
:102C600001D0984204D122F0700E4A6842EA0E0266
:102C7000A0421BD0604519D0A84217D0B04215D051
:102C8000B84213D0984211D0184DA8420ED0184D1A
:102C9000A8420BD0174DA84208D0174DA84205D026
:102CA000164DA84202D0164DA84203D122F4407519
:102CB000CA682A434D6922F080022A4302608A686A
:102CC000C2620A688262A04201D0984201D10969B9
:102CD000016301214161F0BD00000140000400409A
:102CE00000080040000C004000040140004001408A
:102CF000004401400048014000180040001C004012
:102D00000020004010B5846842EA032224F47F4486
:102D10000A432243826010BD826822F070020A4397
:102D200042F007018160704710B5036A046A24F01D
:102D300001040462846924F0F00444EA021423F0DC
:102D40000A020A438461026210BD10B5036A23F0CF
:102D5000100303628369046A23F4704343EA023276
:102D600024F0A00343EA01118261016210BD10B595
:102D7000806B0021C185C184FFF7F5FA10BD0168A1
:102D8000CA6822F49072CA6001684A6922F001029E
:102D90004A61202180F83A10704710B590F83A1037
:102DA000222901D0022010BD8168B1F5805F11D0C9
:102DB0000169002901681FD0496801F07F03816A19
:102DC0004A1C82620B70C18D491E0904090CC18521
:102DD00018D02BE00269816A002A0268526805D087
:102DE000D2B20A80816A491C8162ECE7C2F3080210
:102DF0000A80816A891CF7E74A68816A4B1C8362F2
:102E00000A70E0E70168CA6822F02002CA6001681F
:102E1000CA6822F48072CA6001684A6922F001021D
:102E20004A61202180F83A10FFF7E8FB002010BD2E
:102E30002DE9F041044600680169E26821F440513F
:102E4000114301612169A068E26908436169114386
:102E500008432168CA6849F20C639A430243CA6076
:102E600020684169A26921F4407111434161E06920
:102E7000192764253226B0F5004F354A35492068B8
:102E80004FF0000806D0884201D0904236D1FEF7BC
:102E90008FFA35E0884201D0904202D1FEF788FADD
:102EA00001E0FEF775FA61684A18A0FB070148EBDC
:102EB0000803FDF785F90146B0FBF5F00201B1FB0F
:102EC000F5F06FF01803584301EB800006EBC000EB
:102ED000B0FBF5F000F0F80002EB4002B1FBF5F0BA
:102EE000584301EB800006EBC000B0FBF5F000F0AA
:102EF0000700216810448860BDE8F081FEF748FAB9
:102F000061688B0F8A00A0FB0701FDF759F90146A4
:102F1000B0FBF5F06FF01802504301EB800006EBB8
:102F20000010B0FBF5F000F0F002B1FBF5F002EBA1
:102F30000012B1FBF5F06FF01803584301EB80006D
:102F400006EB0010B0FBF5F000F00F00D1E7000039
:102F5000001401400010014090F83910212901D0DF
:102F6000022070478168B1F5805F016A0BD04A1C6E
:102F70000262026809785160C18C491E0904090C7B
:102F8000C1840ED017E009880268C1F308015160BE
:102F900001690029016A02D0491C0162ECE7891C21
:102FA000FBE70168CA6822F08002CA600068C16855
:102FB00041F04001C160002070472DE9F041984682
:102FC00017460E460446069D1DE0681C1BD02DB119
:102FD000FEF7A4F8A0EB0800A84214D92068C16845
:102FE00021F4D071C1602068416921F00101416183
:102FF000202084F8390084F83A00002084F8380052
:103000000320BDE8F0812068006836EA000004D0A3
:103010000020B842D9D00020F3E70120F9E70000F2
:103020000148FFF7A1B90000B80100200148FFF7EF
:103030009BB90000F8010020FEE700000FB4054B2B
:1030400010B503A9044A029800F028F810BC5DF8F6
:1030500014FB0000ED330008180100200907090ED9
:10306000002804DB00F1E02080F80014704700F035
:103070000F0000F1E02080F8141D704702E008C83E
:10308000121F08C1002AFAD170477047002001E0E2
:1030900001C1121F002AFBD1704700002DE9FF4F2C
:1030A00089B09B460446002506E025280BD05A46E9
:1030B0000B999047641C6D1C20780028F5D10DB049
:1030C0002846BDE8F08F0027B8460122474900E0B6
:1030D000074314F8013F203B02FA03F00842F7D1FE
:1030E00020782E2819D114F8010F47F004072A2858
:1030F0000ED06FF02F022078A0F1300109290CD8F2
:1031000008EB880102EB410100EB0108641CF2E7C7
:103110000A98641C50F8048B0A9020780028CED0BE
:10312000642808D0692806D075281ED05A460B9905
:1031300090476D1C58E00A994FF00A0901C90A919D
:10314000002802DA40422D2102E0390504D52B2166
:103150008DF82010012103E0F90704D02021F7E7C2
:103160008A4608AE0DE00021FAE70A994FF00A09F5
:1031700001C90A91F7E74946FDF7DCF9303106F855
:10318000011D0028F7D1ADEB060000F120097807FA
:1031900001D44FF00108C84502DDA8EB090000E0AA
:1031A00000208046002706E008A85A46C05D0B991B
:1031B00090476D1C7F1C5745F6DB04E030205A46D3
:1031C0000B9990476D1CB8F10001A8F10108F5DCDE
:1031D00005E016F8010B5A460B9990476D1CB9F1A2
:1031E0000001A9F10109F4DC641C65E7092801006C
:1031F0002DE9F04101252DED028B00261C4F9FED9E
:103200001D8B344607EBC40090ED000B90ED301B96
:1032100053EC102B51EC110BFDF7C8F853EC182BA5
:10322000FDF7CAF841EC100B55B19FED141B51ECA2
:10323000100B53EC112BFDF74DF90CD800250AE0CB
:103240009FED101B51EC100B53EC112BFDF75AF9AD
:1032500001D80125761C641CB52CD3DB022E04D0CA
:103260000020BDEC028BBDE8F0810120F9E70000F1
:10327000802200200000000000003940FA7E6ABC75
:10328000749398BFFA7E6ABC7493983F30B5194D19
:103290002A462C6DD2E91232A04205D2994203D2BD
:1032A000914201D9002030BD6D6DA84205D99942E7
:1032B00003D2914201D9012030BD994205D9A042E3
:1032C00003D9A84201D2022030BD914205D2A042CA
:1032D00003D9A84201D2032030BD994207D29142BE
:1032E00005D9A04203D9A84201D2042030BD4FF035
:1032F000FF3030BD000000202DE9F04100212DED10
:10330000048B02460F460E460D460C464FEA01005E
:1033100052F82030052B0DD2DFE803F00305070932
:103320000B00491C06E07F1C04E0761C02E06D1CCB
:1033300000E0641C9FED298B9FED2A9B401CCD284B
:10334000E6DB0846FDF7A7F853EC182BFDF734F839
:1033500053EC192BFDF7D6F804D80120BDEC048BF3
:10336000BDE8F0813846FDF796F853EC182BFDF7D1
:1033700023F853EC192BFDF7C5F801D80320EDE72E
:103380003046FDF788F853EC182BFDF715F853EC91
:10339000192BFDF7B7F801D80420DFE72846FDF721
:1033A0007AF853EC182BFDF707F853EC192BFDF7BF
:1033B000A9F801D80220D1E72046FDF76CF853ECBC
:1033C000182BFCF7F9FF53EC192BFDF79BF801D8EC
:1033D0000020C3E74FF0FF30C0E70000000000000E
:1033E00000A06940333333333333E33F13B56423F1
:1033F000012269460248FFF74DF900981CBD000004
:10340000F80100200948D0E90E21531AA2EB9302DB
:1034100001EB9301C0E91221D0E91032D11A03EB7C
:103420009103A2EB9101C0E9143170470000002024
:10343000AAB0FDF781FEFFF7ABFBFFF709FAFFF734
:1034400069FAFFF781FAB04CAE48002520604FF4CE
:10345000E130C4E901050C26E560C4E90456A56124
:103460002046E561FFF70AF804F14000A749016032
:103470004FF46121C0E90115C560C0E904568561BA
:10348000C561FEF7FBFFFDF775FC3622A4F198013C
:1034900013A8FCF7C6FEA4F19806F08EADF88200E2
:1034A000B06B2190B08FADF88800F08FADF88A0036
:1034B0001122A4F1580123A8FCF7B3FE96F851009D
:1034C0008DF89D00706D28904C2216A96846FCF777
:1034D000A8FE0DF14C0C8E489CE80E00FDF7E0F8BC
:1034E0008B4901220C312046FFF75EF82622214647
:1034F0000CA8FCF796FEE08CADF85600A4F118007D
:10350000016C1691B0F84400ADF85C00E08DADF8A8
:103510005E00092204F1300118A8FCF782FE94F83D
:1035200039008DF8690094F83A008DF86A00E06B74
:103530001B90302210A96846FCF773FE0DF1300C89
:103540009CE80F00FFF706F9714901220D3104F1E3
:103550004000FFF729F8A4F14000FEF76DFC6C4C29
:103560004FF4FA76641EE07A90B1E06A0428FAD14A
:10357000E572E562FFF746FF0120207336208DF8E3
:1035800000006423012269465F48FFF783F8EAE7F9
:10359000207B0028E7D0A07910B35B48C03000F052
:1035A000D1F85C48FFF7A8FE2063FFF721FEA8B121
:1035B000216B481C12D058A0FFF740FD94F8300052
:1035C000642330308DF80000012269464E48FFF731
:1035D00061F83046FDF7AEFC00F0FAF8A571C2E7DD
:1035E000E07908B34F4800F0ADF84F48FFF784FE8C
:1035F0002063FFF7FDFDA8B1216B481C12D046A047
:10360000FFF71CFD94F83000642330308DF8000083
:10361000012269463C48FFF73DF83046FDF78AFC39
:1036200000F0D6F8E5719EE7207A08B33F4800F035
:1036300089F83F48FFF760FE2063FFF7D9FDA8B186
:10364000216B481C12D034A0FFF7F8FC94F830002E
:10365000642330308DF80000012269462A48FFF7C4
:1036600019F83046FDF766FC00F0B2F825727AE7EB
:10367000607A08B32F4800F065F82F48FFF73CFE4A
:103680002063FFF7B5FDA8B1216B481C12D022A022
:10369000FFF7D4FC94F83000642330308DF800003C
:1036A000012269461848FEF7F5FF3046FDF742FC57
:1036B00000F08EF8657256E7A07A00288FD01F4878
:1036C00000F040F81E48FFF717FE2063FFF790FD5B
:1036D000A8B1216B481C12D00FA0FFF7AFFC94F8E3
:1036E0003000642330308DF800000122694606481E
:1036F000FEF7D0FF3046FDF71DFC00F069F8A5721B
:1037000031E7000000100140B80100200014014022
:1037100001000020E8280020526567696F6E2025AF
:10372000640D0A00AC0500201C2C0020E0080020DD
:10373000502F0020140C002084320020480F00205D
:10374000B83500202DE9F04705462DED048B002209
:103750000068074655F82210B94200D20F46814250
:1037600000D90846521CCD2AF4DB0024FCF7A4FE45
:1037700081468A46154E3846FCF79EFE8846074627
:1037800048EC107B4AEC119B53EC102B51EC110BC5
:10379000FCF70CFE41EC190B48EC187B55F82400A3
:1037A000FCF78AFE53EC182BFCF700FE53EC192BA8
:1037B000FCF702FE06EBC402641CC2E90001CD2C3A
:1037C000DEDBBDEC048BBDE8F0870000802200202A
:1037D0002DE9F04F274B002003F5CD62244F014621
:1037E000A3F54D6503F54D76A3F69C14A2F54D693E
:1037F00002F54D7AA2F69C1B02F5CD6E47F820101B
:1038000043F8201045F8201046F8201044F8201006
:1038100042F8201049F820104AF82010DFF85880AC
:103820004BF820104EF820104FF0FF3C48F820C015
:10383000A8F54D7848F820C0A8F54D7848F820C084
:10384000A8F54D7848F820C0A8F54D7848F820C074
:10385000401CCD28D2DB0948816241620162C1610E
:10386000816141710171C1708170BDE8F08F00000C
:10387000780200207C120020B835002000000020D3
:103880000000000000000000010203040607080910
:103890000000000001020304B83800080000002006
:1038A0001C0100007C300008D43900081C010020F5
:1038B000D43B00008C300008000000000000000035
:1038C00000000000000000000000000000000000F8
:1038D00000000000000000000000000000000000E8
:1038E0000000000000000000FFFFFFFF00000000DC
:1038F00000000000000000000000000000000000C8
:1039000000000000000000000000000000000000B7
:1039100000000000000000000000000000000000A7
:1039200041542B4E414D45455945424F4152440D5E
:103930000A41542B535652555549440000FF00008C
:10394000001000800000805F9B34FB0D0A41542B67
:10395000434852555549440000FF020000100080C2
:103960000000805F9B34FB0D0A41542B4352585595
:103970005549440000FF0100001000800000805FF6
:103980009B34FB0D0A41542B535652555549440D57
:103990000A41542B434852555549440D0A41542B72
:1039A000435258555549440D0A41542B41445649F8
:1039B0004E300D0A41542B42415544380D0A000047
:1039C0000100000010000000000000000024F400CE
:0439D00000000000F3
:040000050800018965
:00000001FF
